{
  "_format": "hh-sol-artifact-1",
  "contractName": "Payroll",
  "sourceName": "contracts/Payroll.sol",
  "abi": [
    {
      "inputs": [
        {
          "internalType": "address",
          "name": "_dex",
          "type": "address"
        },
        {
          "internalType": "address",
          "name": "_fallbackToken",
          "type": "address"
        }
      ],
      "stateMutability": "nonpayable",
      "type": "constructor"
    },
    {
      "anonymous": false,
      "inputs": [
        {
          "indexed": false,
          "internalType": "uint256",
          "name": "employeesPaid",
          "type": "uint256"
        },
        {
          "indexed": false,
          "internalType": "uint256",
          "name": "totalAmountUSD",
          "type": "uint256"
        }
      ],
      "name": "BatchPaymentCompleted",
      "type": "event"
    },
    {
      "anonymous": false,
      "inputs": [
        {
          "indexed": true,
          "internalType": "address",
          "name": "wallet",
          "type": "address"
        },
        {
          "indexed": true,
          "internalType": "address",
          "name": "token",
          "type": "address"
        },
        {
          "indexed": false,
          "internalType": "string",
          "name": "symbol",
          "type": "string"
        },
        {
          "indexed": false,
          "internalType": "uint256",
          "name": "salaryUSD",
          "type": "uint256"
        }
      ],
      "name": "EmployeeAdded",
      "type": "event"
    },
    {
      "anonymous": false,
      "inputs": [
        {
          "indexed": true,
          "internalType": "address",
          "name": "wallet",
          "type": "address"
        },
        {
          "indexed": true,
          "internalType": "address",
          "name": "token",
          "type": "address"
        },
        {
          "indexed": false,
          "internalType": "string",
          "name": "symbol",
          "type": "string"
        },
        {
          "indexed": false,
          "internalType": "uint256",
          "name": "amountToken",
          "type": "uint256"
        },
        {
          "indexed": false,
          "internalType": "uint256",
          "name": "amountUSD",
          "type": "uint256"
        }
      ],
      "name": "EmployeePaid",
      "type": "event"
    },
    {
      "anonymous": false,
      "inputs": [
        {
          "indexed": true,
          "internalType": "address",
          "name": "wallet",
          "type": "address"
        }
      ],
      "name": "EmployeeRemoved",
      "type": "event"
    },
    {
      "anonymous": false,
      "inputs": [
        {
          "indexed": true,
          "internalType": "string",
          "name": "symbol",
          "type": "string"
        },
        {
          "indexed": false,
          "internalType": "address",
          "name": "oracleAddress",
          "type": "address"
        }
      ],
      "name": "OracleUpdated",
      "type": "event"
    },
    {
      "anonymous": false,
      "inputs": [
        {
          "indexed": true,
          "internalType": "address",
          "name": "employer",
          "type": "address"
        },
        {
          "indexed": false,
          "internalType": "uint256",
          "name": "amount",
          "type": "uint256"
        }
      ],
      "name": "PayrollFunded",
      "type": "event"
    },
    {
      "inputs": [
        {
          "internalType": "address",
          "name": "_wallet",
          "type": "address"
        },
        {
          "internalType": "address",
          "name": "_token",
          "type": "address"
        },
        {
          "internalType": "string",
          "name": "_symbol",
          "type": "string"
        },
        {
          "internalType": "uint256",
          "name": "_salaryUSD",
          "type": "uint256"
        }
      ],
      "name": "addEmployee",
      "outputs": [],
      "stateMutability": "nonpayable",
      "type": "function"
    },
    {
      "inputs": [
        {
          "internalType": "string",
          "name": "_symbol",
          "type": "string"
        },
        {
          "internalType": "address",
          "name": "_oracleAddress",
          "type": "address"
        }
      ],
      "name": "addOracle",
      "outputs": [],
      "stateMutability": "nonpayable",
      "type": "function"
    },
    {
      "inputs": [],
      "name": "dex",
      "outputs": [
        {
          "internalType": "contract ISwapRouter",
          "name": "",
          "type": "address"
        }
      ],
      "stateMutability": "view",
      "type": "function"
    },
    {
      "inputs": [],
      "name": "emergencyWithdraw",
      "outputs": [],
      "stateMutability": "nonpayable",
      "type": "function"
    },
    {
      "inputs": [],
      "name": "employer",
      "outputs": [
        {
          "internalType": "address",
          "name": "",
          "type": "address"
        }
      ],
      "stateMutability": "view",
      "type": "function"
    },
    {
      "inputs": [],
      "name": "fallbackToken",
      "outputs": [
        {
          "internalType": "contract IERC20",
          "name": "",
          "type": "address"
        }
      ],
      "stateMutability": "view",
      "type": "function"
    },
    {
      "inputs": [
        {
          "internalType": "uint256",
          "name": "amount",
          "type": "uint256"
        }
      ],
      "name": "fundPayroll",
      "outputs": [],
      "stateMutability": "nonpayable",
      "type": "function"
    },
    {
      "inputs": [],
      "name": "getBalance",
      "outputs": [
        {
          "internalType": "uint256",
          "name": "",
          "type": "uint256"
        }
      ],
      "stateMutability": "view",
      "type": "function"
    },
    {
      "inputs": [
        {
          "internalType": "address",
          "name": "_wallet",
          "type": "address"
        }
      ],
      "name": "getEmployee",
      "outputs": [
        {
          "components": [
            {
              "internalType": "address",
              "name": "wallet",
              "type": "address"
            },
            {
              "internalType": "address",
              "name": "token",
              "type": "address"
            },
            {
              "internalType": "string",
              "name": "symbol",
              "type": "string"
            },
            {
              "internalType": "uint256",
              "name": "salaryUSD",
              "type": "uint256"
            },
            {
              "internalType": "bool",
              "name": "exists",
              "type": "bool"
            }
          ],
          "internalType": "struct Payroll.Employee",
          "name": "",
          "type": "tuple"
        }
      ],
      "stateMutability": "view",
      "type": "function"
    },
    {
      "inputs": [
        {
          "internalType": "string",
          "name": "_symbol",
          "type": "string"
        }
      ],
      "name": "getLatestPrice",
      "outputs": [
        {
          "internalType": "int256",
          "name": "",
          "type": "int256"
        }
      ],
      "stateMutability": "view",
      "type": "function"
    },
    {
      "inputs": [
        {
          "internalType": "string",
          "name": "",
          "type": "string"
        }
      ],
      "name": "oracles",
      "outputs": [
        {
          "internalType": "contract AggregatorV3Interface",
          "name": "",
          "type": "address"
        }
      ],
      "stateMutability": "view",
      "type": "function"
    },
    {
      "inputs": [
        {
          "internalType": "address[]",
          "name": "_employeeAddresses",
          "type": "address[]"
        }
      ],
      "name": "payAllEmployees",
      "outputs": [],
      "stateMutability": "nonpayable",
      "type": "function"
    },
    {
      "inputs": [
        {
          "internalType": "address",
          "name": "_employeeAddress",
          "type": "address"
        }
      ],
      "name": "payEmployee",
      "outputs": [],
      "stateMutability": "nonpayable",
      "type": "function"
    },
    {
      "inputs": [
        {
          "internalType": "address",
          "name": "_wallet",
          "type": "address"
        }
      ],
      "name": "removeEmployee",
      "outputs": [],
      "stateMutability": "nonpayable",
      "type": "function"
    }
  ],
  "bytecode": "0x608060405234801561001057600080fd5b50604051611b55380380611b5583398101604081905261002f9161020e565b600080546001600160a01b03199081163317909155600180546001600160a01b03948516908316179055600280549290931691811691909117909155604080516242544360e81b8152600380820181905282516023928190038301812080548616739e596d809a20a272c788726f592c0d16297554401790556208aa8960eb1b81528082018290528351908190038301812080548616734bb7012fbc79fe4ae9b664228977b442b385500d1790556205852560ec1b8152808201829052835190819003830181208054861673804582b1f8fea73919e7c737115009f668f975281790556214d3d360ea1b8152808201829052835190819003830181208054861673e86999c8e6c8eef71bebd35286bca674e0ad7b211790556251494560e81b81528082018290528351908190038301812080548616733bc617cf3a4bb77003e4c556b87b13d556903d17179055631610555d60e21b815260048101829052835160249181900391909101812080548616739ad0199a67588ee293187d26ba1be61cb07a214c1790556221272160e91b815280820191909152915191829003019020805490911673775a56117fdb8b31877e75ceeb68c96765b031e6179055610241565b80516001600160a01b038116811461020957600080fd5b919050565b6000806040838503121561022157600080fd5b61022a836101f2565b9150610238602084016101f2565b90509250929050565b611905806102506000396000f3fe608060405234801561001057600080fd5b50600436106100ea5760003560e01c8063692058c21161008c578063ae200e7911610066578063ae200e79146101fd578063d108177a14610210578063db2e21bc14610223578063f66a1b711461022b57600080fd5b8063692058c2146101c4578063737893d7146101d7578063912b73d0146101ea57600080fd5b806340928e82116100c857806340928e821461013f5780635900c74d14610152578063669ba8811461016557806367c2f3e11461017857600080fd5b806312065fe0146100ef5780631f50ad161461010a57806332648e091461011f575b600080fd5b6100f761023e565b6040519081526020015b60405180910390f35b61011d6101183660046112cb565b6102b0565b005b61013261012d3660046112cb565b6106bb565b604051610101919061133d565b61011d61014d36600461139b565b610833565b61011d610160366004611457565b61094d565b61011d6101733660046114a5565b610a51565b6101ac61018636600461151a565b80516020818301810180516003825292820191909301209152546001600160a01b031681565b6040516001600160a01b039091168152602001610101565b6001546101ac906001600160a01b031681565b61011d6101e5366004611557565b610ca6565b6002546101ac906001600160a01b031681565b6000546101ac906001600160a01b031681565b61011d61021e3660046112cb565b610ea4565b61011d610fb9565b6100f761023936600461151a565b611157565b6002546040516370a0823160e01b81523060048201526000916001600160a01b0316906370a0823190602401602060405180830381865afa158015610287573d6000803e3d6000fd5b505050506040513d601f19601f820116820180604052508101906102ab91906115bd565b905090565b6000546001600160a01b031633146102e35760405162461bcd60e51b81526004016102da906115d6565b60405180910390fd5b6001600160a01b038082166000908152600460209081526040808320815160a08101835281548616815260018201549095169285019290925260028201805493949391840191610332906115fe565b80601f016020809104026020016040519081016040528092919081815260200182805461035e906115fe565b80156103ab5780601f10610380576101008083540402835291602001916103ab565b820191906000526020600020905b81548152906001019060200180831161038e57829003601f168201915b50505091835250506003820154602082015260049091015460ff16151560409091015260808101519091506104155760405162461bcd60e51b815260206004820152601060248201526f4e6f207375636820656d706c6f79656560801b60448201526064016102da565b6060810151604082015160009061042b90611157565b9050600081136104745760405162461bcd60e51b8152602060048201526014602482015273496e76616c6964206f7261636c6520707269636560601b60448201526064016102da565b600081610485846305f5e10061164e565b61048f919061166b565b9050600060646104a083606261164e565b6104aa919061166b565b60025460015460405163095ea7b360e01b81526001600160a01b03918216600482015260248101889052929350169063095ea7b3906044016020604051808303816000875af1158015610501573d6000803e3d6000fd5b505050506040513d601f19601f82011682018060405250810190610525919061168d565b5060015460408051610100810182526002546001600160a01b039081168252602089810151821690830152610bb892820192909252875182166060820152600092919091169063a8c9ed6790608081016105804260786116af565b815260208082018a905260408083018890526000606093840152805160e086811b6001600160e01b031916825285516001600160a01b03908116600484015293860151841660248301529185015162ffffff16604482015292840151821660648401526080840151608484015260a084015160a484015260c084015160c4840152929092015190911660e4820152610104016020604051808303816000875af1158015610631573d6000803e3d6000fd5b505050506040513d601f19601f8201168201806040525081019061065591906115bd565b905085602001516001600160a01b031686600001516001600160a01b03167f485f47b94d28bc3dfdfcbf33b2e7873554f75a0c6243d48c788ee4c55204f9b5886040015184896040516106aa939291906116c2565b60405180910390a350505050505050565b6040805160a0810182526000808252602080830182905260608385018190528301829052608083018290526001600160a01b03851682526004908190529290209091015460ff166107435760405162461bcd60e51b8152602060048201526012602482015271115b5c1b1bde5959481b9bdd08199bdd5b9960721b60448201526064016102da565b6001600160a01b03808316600090815260046020908152604091829020825160a0810184528154851681526001820154909416918401919091526002810180549192840191610791906115fe565b80601f01602080910402602001604051908101604052809291908181526020018280546107bd906115fe565b801561080a5780601f106107df5761010080835404028352916020019161080a565b820191906000526020600020905b8154815290600101906020018083116107ed57829003601f168201915b50505091835250506003820154602082015260049091015460ff16151560409091015292915050565b6000546001600160a01b0316331461085d5760405162461bcd60e51b81526004016102da906115d6565b6002546040516323b872dd60e01b8152336004820152306024820152604481018390526001600160a01b03909116906323b872dd906064016020604051808303816000875af11580156108b4573d6000803e3d6000fd5b505050506040513d601f19601f820116820180604052508101906108d8919061168d565b6109155760405162461bcd60e51b815260206004820152600e60248201526d119d5b991a5b99c819985a5b195960921b60448201526064016102da565b60405181815233907f8965492665ae65aac7bb9b650760a8c61148b40e6c988ed5a646e420676d45119060200160405180910390a250565b6000546001600160a01b031633146109775760405162461bcd60e51b81526004016102da906115d6565b6001600160a01b0381166109be5760405162461bcd60e51b815260206004820152600e60248201526d496e76616c6964206f7261636c6560901b60448201526064016102da565b806003836040516109cf91906116e7565b90815260405190819003602001812080546001600160a01b03939093166001600160a01b031990931692909217909155610a0a9083906116e7565b6040519081900381206001600160a01b0383168252907f967dce4bd9f1ee4acd36a0df26aa5e6f63729594fe418b495116e30465f39fb09060200160405180910390a25050565b6000546001600160a01b03163314610a7b5760405162461bcd60e51b81526004016102da906115d6565b60008060005b83811015610c6657600060046000878785818110610aa157610aa1611703565b9050602002016020810190610ab691906112cb565b6001600160a01b0390811682526020808301939093526040918201600020825160a081018452815483168152600182015490921693820193909352600283018054919392840191610b06906115fe565b80601f0160208091040260200160405190810160405280929190818152602001828054610b32906115fe565b8015610b7f5780601f10610b5457610100808354040283529160200191610b7f565b820191906000526020600020905b815481529060010190602001808311610b6257829003601f168201915b50505091835250506003820154602082015260049091015460ff1615156040909101526080810151909150610bb45750610c5e565b30631f50ad16878785818110610bcc57610bcc611703565b9050602002016020810190610be191906112cb565b6040516001600160e01b031960e084901b1681526001600160a01b039091166004820152602401600060405180830381600087803b158015610c2257600080fd5b505af1925050508015610c33575060015b610c3d5750610c5e565b82610c4781611719565b935050806060015184610c5a91906116af565b9350505b600101610a81565b5060408051828152602081018490527ff9d10425b3a360d0006e1ac63b1a993fd81f3569bb3b21d5ab64b67e4dbe6e2d910160405180910390a150505050565b6000546001600160a01b03163314610cd05760405162461bcd60e51b81526004016102da906115d6565b6001600160a01b0384166000908152600460208190526040909120015460ff1615610d2f5760405162461bcd60e51b815260206004820152600f60248201526e456d706c6f7965652065786973747360881b60448201526064016102da565b60006001600160a01b0316600383604051610d4a91906116e7565b908152604051908190036020019020546001600160a01b031603610da85760405162461bcd60e51b815260206004820152601560248201527413dc9858db19481b9bdd0818dbdb999a59dd5c9959605a1b60448201526064016102da565b6040805160a0810182526001600160a01b038087168083528682166020808501918252848601888152606086018890526001608087018190526000948552600490925295909220845181549085166001600160a01b03199182161782559151928101805493909416929091169190911790915591519091906002820190610e2f9082611783565b50606082015160038201556080909101516004909101805460ff19169115159190911790556040516001600160a01b0384811691908616907ff7e98994721ab63471c5136bbb7cccb834bd472075a36dde6a338d308674793d90610e969086908690611843565b60405180910390a350505050565b6000546001600160a01b03163314610ece5760405162461bcd60e51b81526004016102da906115d6565b6001600160a01b0381166000908152600460208190526040909120015460ff16610f2d5760405162461bcd60e51b815260206004820152601060248201526f4e6f207375636820656d706c6f79656560801b60448201526064016102da565b6001600160a01b038116600090815260046020526040812080546001600160a01b03199081168255600182018054909116905590610f6e6002830182611261565b506000600382018190556004909101805460ff191690556040516001600160a01b038316917fabae6e64cb4315875c29d42347a312f5e9fce4ab564e9722b43dd78d0751135a91a250565b6000546001600160a01b03163314610fe35760405162461bcd60e51b81526004016102da906115d6565b6002546040516370a0823160e01b81523060048201526000916001600160a01b0316906370a0823190602401602060405180830381865afa15801561102c573d6000803e3d6000fd5b505050506040513d601f19601f8201168201806040525081019061105091906115bd565b90506000811161109b5760405162461bcd60e51b81526020600482015260166024820152754e6f2062616c616e636520746f20776974686472617760501b60448201526064016102da565b60025460005460405163a9059cbb60e01b81526001600160a01b0391821660048201526024810184905291169063a9059cbb906044016020604051808303816000875af11580156110f0573d6000803e3d6000fd5b505050506040513d601f19601f82011682018060405250810190611114919061168d565b6111545760405162461bcd60e51b815260206004820152601160248201527015da5d1a191c985dd85b0819985a5b1959607a1b60448201526064016102da565b50565b6000806001600160a01b031660038360405161117391906116e7565b908152604051908190036020019020546001600160a01b0316036111cc5760405162461bcd60e51b815260206004820152601060248201526f13dc9858db19481b9bdd08199bdd5b9960821b60448201526064016102da565b60006003836040516111de91906116e7565b9081526040805191829003602001822054633fabe5a360e21b835290516001600160a01b039091169163feaf968c9160048083019260a09291908290030181865afa158015611231573d6000803e3d6000fd5b505050506040513d601f19601f82011682018060405250810190611255919061187f565b50919695505050505050565b50805461126d906115fe565b6000825580601f1061127d575050565b601f01602090049060005260206000209081019061115491905b808211156112ab5760008155600101611297565b5090565b80356001600160a01b03811681146112c657600080fd5b919050565b6000602082840312156112dd57600080fd5b6112e6826112af565b9392505050565b60005b838110156113085781810151838201526020016112f0565b50506000910152565b600081518084526113298160208601602086016112ed565b601f01601f19169290920160200192915050565b60208152600060018060a01b0380845116602084015280602085015116604084015250604083015160a0606084015261137960c0840182611311565b9050606084015160808401526080840151151560a08401528091505092915050565b6000602082840312156113ad57600080fd5b5035919050565b634e487b7160e01b600052604160045260246000fd5b600082601f8301126113db57600080fd5b813567ffffffffffffffff808211156113f6576113f66113b4565b604051601f8301601f19908116603f0116810190828211818310171561141e5761141e6113b4565b8160405283815286602085880101111561143757600080fd5b836020870160208301376000602085830101528094505050505092915050565b6000806040838503121561146a57600080fd5b823567ffffffffffffffff81111561148157600080fd5b61148d858286016113ca565b92505061149c602084016112af565b90509250929050565b600080602083850312156114b857600080fd5b823567ffffffffffffffff808211156114d057600080fd5b818501915085601f8301126114e457600080fd5b8135818111156114f357600080fd5b8660208260051b850101111561150857600080fd5b60209290920196919550909350505050565b60006020828403121561152c57600080fd5b813567ffffffffffffffff81111561154357600080fd5b61154f848285016113ca565b949350505050565b6000806000806080858703121561156d57600080fd5b611576856112af565b9350611584602086016112af565b9250604085013567ffffffffffffffff8111156115a057600080fd5b6115ac878288016113ca565b949793965093946060013593505050565b6000602082840312156115cf57600080fd5b5051919050565b6020808252600e908201526d139bdd08185d5d1a1bdc9a5e995960921b604082015260600190565b600181811c9082168061161257607f821691505b60208210810361163257634e487b7160e01b600052602260045260246000fd5b50919050565b634e487b7160e01b600052601160045260246000fd5b808202811582820484141761166557611665611638565b92915050565b60008261168857634e487b7160e01b600052601260045260246000fd5b500490565b60006020828403121561169f57600080fd5b815180151581146112e657600080fd5b8082018082111561166557611665611638565b6060815260006116d56060830186611311565b60208301949094525060400152919050565b600082516116f98184602087016112ed565b9190910192915050565b634e487b7160e01b600052603260045260246000fd5b60006001820161172b5761172b611638565b5060010190565b601f82111561177e576000816000526020600020601f850160051c8101602086101561175b5750805b601f850160051c820191505b8181101561177a57828155600101611767565b5050505b505050565b815167ffffffffffffffff81111561179d5761179d6113b4565b6117b1816117ab84546115fe565b84611732565b602080601f8311600181146117e657600084156117ce5750858301515b600019600386901b1c1916600185901b17855561177a565b600085815260208120601f198616915b82811015611815578886015182559484019460019091019084016117f6565b50858210156118335787850151600019600388901b60f8161c191681555b5050505050600190811b01905550565b6040815260006118566040830185611311565b90508260208301529392505050565b805169ffffffffffffffffffff811681146112c657600080fd5b600080600080600060a0868803121561189757600080fd5b6118a086611865565b94506020860151935060408601519250606086015191506118c360808701611865565b9050929550929590935056fea26469706673582212203c99bdd7526fd943ca6b5b4f5f13efe4ea68f504090d453e1868b01004edca2464736f6c63430008190033",
  "linkReferences": {},
  "deployedLinkReferences": {}
}