{
  "_format": "hh-sol-artifact-1",
  "contractName": "SimplePayroll",
  "sourceName": "contracts/SimplePayroll.sol",
  "abi": [
    {
      "inputs": [],
      "stateMutability": "nonpayable",
      "type": "constructor"
    },
    {
      "anonymous": false,
      "inputs": [
        {
          "indexed": true,
          "internalType": "address",
          "name": "wallet",
          "type": "address"
        },
        {
          "indexed": false,
          "internalType": "uint256",
          "name": "salary",
          "type": "uint256"
        }
      ],
      "name": "EmployeeAdded",
      "type": "event"
    },
    {
      "anonymous": false,
      "inputs": [
        {
          "indexed": true,
          "internalType": "address",
          "name": "wallet",
          "type": "address"
        },
        {
          "indexed": false,
          "internalType": "uint256",
          "name": "amount",
          "type": "uint256"
        }
      ],
      "name": "EmployeePaid",
      "type": "event"
    },
    {
      "anonymous": false,
      "inputs": [
        {
          "indexed": true,
          "internalType": "address",
          "name": "wallet",
          "type": "address"
        }
      ],
      "name": "EmployeeRemoved",
      "type": "event"
    },
    {
      "anonymous": false,
      "inputs": [
        {
          "indexed": true,
          "internalType": "address",
          "name": "employer",
          "type": "address"
        },
        {
          "indexed": false,
          "internalType": "uint256",
          "name": "amount",
          "type": "uint256"
        }
      ],
      "name": "FundsWithdrawn",
      "type": "event"
    },
    {
      "anonymous": false,
      "inputs": [
        {
          "indexed": true,
          "internalType": "address",
          "name": "employer",
          "type": "address"
        },
        {
          "indexed": false,
          "internalType": "uint256",
          "name": "amount",
          "type": "uint256"
        }
      ],
      "name": "PayrollFunded",
      "type": "event"
    },
    {
      "inputs": [
        {
          "internalType": "address",
          "name": "_wallet",
          "type": "address"
        },
        {
          "internalType": "uint256",
          "name": "_salary",
          "type": "uint256"
        }
      ],
      "name": "addEmployee",
      "outputs": [],
      "stateMutability": "nonpayable",
      "type": "function"
    },
    {
      "inputs": [],
      "name": "emergencyWithdraw",
      "outputs": [],
      "stateMutability": "nonpayable",
      "type": "function"
    },
    {
      "inputs": [],
      "name": "employer",
      "outputs": [
        {
          "internalType": "address",
          "name": "",
          "type": "address"
        }
      ],
      "stateMutability": "view",
      "type": "function"
    },
    {
      "inputs": [],
      "name": "getAllEmployees",
      "outputs": [
        {
          "internalType": "address[]",
          "name": "",
          "type": "address[]"
        }
      ],
      "stateMutability": "view",
      "type": "function"
    },
    {
      "inputs": [],
      "name": "getBalance",
      "outputs": [
        {
          "internalType": "uint256",
          "name": "",
          "type": "uint256"
        }
      ],
      "stateMutability": "view",
      "type": "function"
    },
    {
      "inputs": [
        {
          "internalType": "address",
          "name": "_wallet",
          "type": "address"
        }
      ],
      "name": "getEmployee",
      "outputs": [
        {
          "components": [
            {
              "internalType": "address",
              "name": "wallet",
              "type": "address"
            },
            {
              "internalType": "uint256",
              "name": "salary",
              "type": "uint256"
            },
            {
              "internalType": "bool",
              "name": "exists",
              "type": "bool"
            }
          ],
          "internalType": "struct SimplePayroll.Employee",
          "name": "",
          "type": "tuple"
        }
      ],
      "stateMutability": "view",
      "type": "function"
    },
    {
      "inputs": [],
      "name": "payAllEmployees",
      "outputs": [],
      "stateMutability": "nonpayable",
      "type": "function"
    },
    {
      "inputs": [
        {
          "internalType": "address",
          "name": "_employeeAddress",
          "type": "address"
        }
      ],
      "name": "payEmployee",
      "outputs": [],
      "stateMutability": "nonpayable",
      "type": "function"
    },
    {
      "inputs": [
        {
          "internalType": "address",
          "name": "_wallet",
          "type": "address"
        }
      ],
      "name": "removeEmployee",
      "outputs": [],
      "stateMutability": "nonpayable",
      "type": "function"
    },
    {
      "stateMutability": "payable",
      "type": "receive"
    }
  ],
  "bytecode": "0x6080604052348015600f57600080fd5b50600080546001600160a01b03191633179055610ddf806100316000396000f3fe60806040526004361061008a5760003560e01c8063ae200e7911610059578063ae200e791461016f578063d108177a146101a7578063db2e21bc146101c7578063e3366fed146101dc578063e7fd9a13146101fe57600080fd5b806312065fe0146100cb5780631f50ad16146100eb57806332648e091461010d578063809e9ef51461015a57600080fd5b366100c65760405134815233907f8965492665ae65aac7bb9b650760a8c61148b40e6c988ed5a646e420676d45119060200160405180910390a2005b600080fd5b3480156100d757600080fd5b506040514781526020015b60405180910390f35b3480156100f757600080fd5b5061010b610106366004610c43565b61021e565b005b34801561011957600080fd5b5061012d610128366004610c43565b6103e2565b6040805182516001600160a01b0316815260208084015190820152918101511515908201526060016100e2565b34801561016657600080fd5b5061010b61047b565b34801561017b57600080fd5b5060005461018f906001600160a01b031681565b6040516001600160a01b0390911681526020016100e2565b3480156101b357600080fd5b5061010b6101c2366004610c43565b6106ac565b3480156101d357600080fd5b5061010b61087e565b3480156101e857600080fd5b506101f16109cd565b6040516100e29190610c65565b34801561020a57600080fd5b5061010b610219366004610cb2565b610a2f565b6000546001600160a01b031633146102515760405162461bcd60e51b815260040161024890610cdc565b60405180910390fd5b6001600160a01b0380821660009081526001602081815260409283902083516060810185528154909516855291820154908401526002015460ff1615159082018190526102b05760405162461bcd60e51b815260040161024890610d04565b80602001514710156102fb5760405162461bcd60e51b8152602060048201526014602482015273496e73756666696369656e742062616c616e636560601b6044820152606401610248565b805160208201516040516000926001600160a01b031691908381818185875af1925050503d806000811461034b576040519150601f19603f3d011682016040523d82523d6000602084013e610350565b606091505b50509050806103925760405162461bcd60e51b815260206004820152600e60248201526d14185e5b595b9d0819985a5b195960921b6044820152606401610248565b81600001516001600160a01b03167fd83bfc12be414f30a785230b3b27888a2bf2f4b9d6f56cae4043fff9fe0f8d7383602001516040516103d591815260200190565b60405180910390a2505050565b60408051606081018252600080825260208083018290528284018290526001600160a01b038516825260019052919091206002015460ff166104365760405162461bcd60e51b815260040161024890610d04565b506001600160a01b0390811660009081526001602081815260409283902083516060810185528154909516855291820154908401526002015460ff1615159082015290565b6000546001600160a01b031633146104a55760405162461bcd60e51b815260040161024890610cdc565b6000805b60025481101561054e5760016000600283815481106104ca576104ca610d3b565b60009182526020808320909101546001600160a01b0316835282019290925260400190206002015460ff161561054657600160006002838154811061051157610511610d3b565b60009182526020808320909101546001600160a01b031683528201929092526040019020600101546105439083610d67565b91505b6001016104a9565b50804710156105965760405162461bcd60e51b8152602060048201526014602482015273496e73756666696369656e742062616c616e636560601b6044820152606401610248565b60005b6002548110156106a8576000600282815481106105b8576105b8610d3b565b60009182526020808320909101546001600160a01b0316808352600190915260409091206002015490915060ff161561069f576001600160a01b038116600081815260016020819052604080832090910154905190929083908381818185875af1925050503d8060008114610649576040519150601f19603f3d011682016040523d82523d6000602084013e61064e565b606091505b50509050801561069c57826001600160a01b03167fd83bfc12be414f30a785230b3b27888a2bf2f4b9d6f56cae4043fff9fe0f8d738360405161069391815260200190565b60405180910390a25b50505b50600101610599565b5050565b6000546001600160a01b031633146106d65760405162461bcd60e51b815260040161024890610cdc565b6001600160a01b03811660009081526001602052604090206002015460ff166107115760405162461bcd60e51b815260040161024890610d04565b6001600160a01b0381166000908152600160208190526040822080546001600160a01b0319168155908101829055600201805460ff191690555b60025481101561084657816001600160a01b03166002828154811061077257610772610d3b565b6000918252602090912001546001600160a01b03160361083e576002805461079c90600190610d80565b815481106107ac576107ac610d3b565b600091825260209091200154600280546001600160a01b0390921691839081106107d8576107d8610d3b565b9060005260206000200160006101000a8154816001600160a01b0302191690836001600160a01b03160217905550600280548061081757610817610d93565b600082815260209020810160001990810180546001600160a01b0319169055019055610846565b60010161074b565b506040516001600160a01b038216907fabae6e64cb4315875c29d42347a312f5e9fce4ab564e9722b43dd78d0751135a90600090a250565b6000546001600160a01b031633146108a85760405162461bcd60e51b815260040161024890610cdc565b47806108ef5760405162461bcd60e51b81526020600482015260166024820152754e6f2062616c616e636520746f20776974686472617760501b6044820152606401610248565b600080546040516001600160a01b039091169083908381818185875af1925050503d806000811461093c576040519150601f19603f3d011682016040523d82523d6000602084013e610941565b606091505b50509050806109865760405162461bcd60e51b815260206004820152601160248201527015da5d1a191c985dd85b0819985a5b1959607a1b6044820152606401610248565b6000546040518381526001600160a01b03909116907feaff4b37086828766ad3268786972c0cd24259d4c87a80f9d3963a3c3d999b0d906020015b60405180910390a25050565b60606002805480602002602001604051908101604052809291908181526020018280548015610a2557602002820191906000526020600020905b81546001600160a01b03168152600190910190602001808311610a07575b5050505050905090565b6000546001600160a01b03163314610a595760405162461bcd60e51b815260040161024890610cdc565b6001600160a01b03821660009081526001602052604090206002015460ff1615610ac55760405162461bcd60e51b815260206004820152601760248201527f456d706c6f79656520616c7265616479206578697374730000000000000000006044820152606401610248565b6001600160a01b038216610b0d5760405162461bcd60e51b815260206004820152600f60248201526e496e76616c6964206164647265737360881b6044820152606401610248565b60008111610b5d5760405162461bcd60e51b815260206004820152601d60248201527f53616c617279206d7573742062652067726561746572207468616e20300000006044820152606401610248565b604080516060810182526001600160a01b03848116808352602080840186815260018587018181526000858152828552888120975188546001600160a01b031990811691909816178855925187830155516002968701805460ff1916911515919091179055855490810186559490527f405787fa12a823e0f2b7631cc41b3ba8828b3321ca811111fa75cd3aa3bb5ace9093018054909216811790915591518381527fbe7f6b46c4532a5c90b0500f056ec43ad5e7ac8c4d410c5351ea9a4a4bed2a0a91016109c1565b80356001600160a01b0381168114610c3e57600080fd5b919050565b600060208284031215610c5557600080fd5b610c5e82610c27565b9392505050565b6020808252825182820181905260009190848201906040850190845b81811015610ca65783516001600160a01b031683529284019291840191600101610c81565b50909695505050505050565b60008060408385031215610cc557600080fd5b610cce83610c27565b946020939093013593505050565b6020808252600e908201526d139bdd08185d5d1a1bdc9a5e995960921b604082015260600190565b60208082526017908201527f456d706c6f79656520646f6573206e6f74206578697374000000000000000000604082015260600190565b634e487b7160e01b600052603260045260246000fd5b634e487b7160e01b600052601160045260246000fd5b80820180821115610d7a57610d7a610d51565b92915050565b81810381811115610d7a57610d7a610d51565b634e487b7160e01b600052603160045260246000fdfea26469706673582212208271834a618b02f200786a32ba7d8b2c0fd10f7ae75514aff943210dd97061a064736f6c63430008190033",
  "linkReferences": {},
  "deployedLinkReferences": {}
}