{
  "_format": "hh-sol-artifact-1",
  "contractName": "SimplePayroll",
  "sourceName": "contracts/SimplePayroll.sol",
  "abi": [
    {
      "inputs": [],
      "stateMutability": "nonpayable",
      "type": "constructor"
    },
    {
      "anonymous": false,
      "inputs": [
        {
          "indexed": true,
          "internalType": "address",
          "name": "wallet",
          "type": "address"
        },
        {
          "indexed": false,
          "internalType": "uint256",
          "name": "salary",
          "type": "uint256"
        }
      ],
      "name": "EmployeeAdded",
      "type": "event"
    },
    {
      "anonymous": false,
      "inputs": [
        {
          "indexed": true,
          "internalType": "address",
          "name": "wallet",
          "type": "address"
        },
        {
          "indexed": false,
          "internalType": "uint256",
          "name": "amount",
          "type": "uint256"
        }
      ],
      "name": "EmployeePaid",
      "type": "event"
    },
    {
      "anonymous": false,
      "inputs": [
        {
          "indexed": true,
          "internalType": "address",
          "name": "wallet",
          "type": "address"
        }
      ],
      "name": "EmployeeRemoved",
      "type": "event"
    },
    {
      "anonymous": false,
      "inputs": [
        {
          "indexed": true,
          "internalType": "address",
          "name": "employer",
          "type": "address"
        },
        {
          "indexed": false,
          "internalType": "uint256",
          "name": "amount",
          "type": "uint256"
        }
      ],
      "name": "FundsWithdrawn",
      "type": "event"
    },
    {
      "anonymous": false,
      "inputs": [
        {
          "indexed": true,
          "internalType": "address",
          "name": "employer",
          "type": "address"
        },
        {
          "indexed": false,
          "internalType": "uint256",
          "name": "amount",
          "type": "uint256"
        }
      ],
      "name": "PayrollFunded",
      "type": "event"
    },
    {
      "inputs": [
        {
          "internalType": "address",
          "name": "_wallet",
          "type": "address"
        },
        {
          "internalType": "uint256",
          "name": "_salary",
          "type": "uint256"
        }
      ],
      "name": "addEmployee",
      "outputs": [],
      "stateMutability": "nonpayable",
      "type": "function"
    },
    {
      "inputs": [],
      "name": "emergencyWithdraw",
      "outputs": [],
      "stateMutability": "nonpayable",
      "type": "function"
    },
    {
      "inputs": [],
      "name": "employer",
      "outputs": [
        {
          "internalType": "address",
          "name": "",
          "type": "address"
        }
      ],
      "stateMutability": "view",
      "type": "function"
    },
    {
      "inputs": [],
      "name": "getAllEmployees",
      "outputs": [
        {
          "internalType": "address[]",
          "name": "",
          "type": "address[]"
        }
      ],
      "stateMutability": "view",
      "type": "function"
    },
    {
      "inputs": [],
      "name": "getBalance",
      "outputs": [
        {
          "internalType": "uint256",
          "name": "",
          "type": "uint256"
        }
      ],
      "stateMutability": "view",
      "type": "function"
    },
    {
      "inputs": [
        {
          "internalType": "address",
          "name": "_wallet",
          "type": "address"
        }
      ],
      "name": "getEmployee",
      "outputs": [
        {
          "components": [
            {
              "internalType": "address",
              "name": "wallet",
              "type": "address"
            },
            {
              "internalType": "uint256",
              "name": "salary",
              "type": "uint256"
            },
            {
              "internalType": "bool",
              "name": "exists",
              "type": "bool"
            }
          ],
          "internalType": "struct SimplePayroll.Employee",
          "name": "",
          "type": "tuple"
        }
      ],
      "stateMutability": "view",
      "type": "function"
    },
    {
      "inputs": [],
      "name": "payAllEmployees",
      "outputs": [],
      "stateMutability": "nonpayable",
      "type": "function"
    },
    {
      "inputs": [
        {
          "internalType": "address",
          "name": "_employeeAddress",
          "type": "address"
        }
      ],
      "name": "payEmployee",
      "outputs": [],
      "stateMutability": "nonpayable",
      "type": "function"
    },
    {
      "inputs": [
        {
          "internalType": "address",
          "name": "_wallet",
          "type": "address"
        }
      ],
      "name": "removeEmployee",
      "outputs": [],
      "stateMutability": "nonpayable",
      "type": "function"
    },
    {
      "inputs": [
        {
          "internalType": "address",
          "name": "_wallet",
          "type": "address"
        },
        {
          "internalType": "uint256",
          "name": "_newSalary",
          "type": "uint256"
        }
      ],
      "name": "updateEmployeeSalary",
      "outputs": [],
      "stateMutability": "nonpayable",
      "type": "function"
    },
    {
      "stateMutability": "payable",
      "type": "receive"
    }
  ],
  "bytecode": "0x6080604052348015600f57600080fd5b50600080546001600160a01b03191633179055610f0f806100316000396000f3fe6080604052600436106100955760003560e01c8063d108177a11610059578063d108177a146101b2578063db2e21bc146101d2578063e3366fed146101e7578063e7fd9a1314610209578063ec34ece81461022957600080fd5b806312065fe0146100d65780631f50ad16146100f657806332648e0914610118578063809e9ef514610165578063ae200e791461017a57600080fd5b366100d15760405134815233907f8965492665ae65aac7bb9b650760a8c61148b40e6c988ed5a646e420676d45119060200160405180910390a2005b600080fd5b3480156100e257600080fd5b506040514781526020015b60405180910390f35b34801561010257600080fd5b50610116610111366004610d73565b610249565b005b34801561012457600080fd5b50610138610133366004610d73565b61040d565b6040805182516001600160a01b0316815260208084015190820152918101511515908201526060016100ed565b34801561017157600080fd5b506101166104a6565b34801561018657600080fd5b5060005461019a906001600160a01b031681565b6040516001600160a01b0390911681526020016100ed565b3480156101be57600080fd5b506101166101cd366004610d73565b6106d7565b3480156101de57600080fd5b506101166108a9565b3480156101f357600080fd5b506101fc6109f8565b6040516100ed9190610d95565b34801561021557600080fd5b50610116610224366004610de2565b610a5a565b34801561023557600080fd5b50610116610244366004610de2565b610c52565b6000546001600160a01b0316331461027c5760405162461bcd60e51b815260040161027390610e0c565b60405180910390fd5b6001600160a01b0380821660009081526001602081815260409283902083516060810185528154909516855291820154908401526002015460ff1615159082018190526102db5760405162461bcd60e51b815260040161027390610e34565b80602001514710156103265760405162461bcd60e51b8152602060048201526014602482015273496e73756666696369656e742062616c616e636560601b6044820152606401610273565b805160208201516040516000926001600160a01b031691908381818185875af1925050503d8060008114610376576040519150601f19603f3d011682016040523d82523d6000602084013e61037b565b606091505b50509050806103bd5760405162461bcd60e51b815260206004820152600e60248201526d14185e5b595b9d0819985a5b195960921b6044820152606401610273565b81600001516001600160a01b03167fd83bfc12be414f30a785230b3b27888a2bf2f4b9d6f56cae4043fff9fe0f8d73836020015160405161040091815260200190565b60405180910390a2505050565b60408051606081018252600080825260208083018290528284018290526001600160a01b038516825260019052919091206002015460ff166104615760405162461bcd60e51b815260040161027390610e34565b506001600160a01b0390811660009081526001602081815260409283902083516060810185528154909516855291820154908401526002015460ff1615159082015290565b6000546001600160a01b031633146104d05760405162461bcd60e51b815260040161027390610e0c565b6000805b6002548110156105795760016000600283815481106104f5576104f5610e6b565b60009182526020808320909101546001600160a01b0316835282019290925260400190206002015460ff161561057157600160006002838154811061053c5761053c610e6b565b60009182526020808320909101546001600160a01b0316835282019290925260400190206001015461056e9083610e97565b91505b6001016104d4565b50804710156105c15760405162461bcd60e51b8152602060048201526014602482015273496e73756666696369656e742062616c616e636560601b6044820152606401610273565b60005b6002548110156106d3576000600282815481106105e3576105e3610e6b565b60009182526020808320909101546001600160a01b0316808352600190915260409091206002015490915060ff16156106ca576001600160a01b038116600081815260016020819052604080832090910154905190929083908381818185875af1925050503d8060008114610674576040519150601f19603f3d011682016040523d82523d6000602084013e610679565b606091505b5050905080156106c757826001600160a01b03167fd83bfc12be414f30a785230b3b27888a2bf2f4b9d6f56cae4043fff9fe0f8d73836040516106be91815260200190565b60405180910390a25b50505b506001016105c4565b5050565b6000546001600160a01b031633146107015760405162461bcd60e51b815260040161027390610e0c565b6001600160a01b03811660009081526001602052604090206002015460ff1661073c5760405162461bcd60e51b815260040161027390610e34565b6001600160a01b0381166000908152600160208190526040822080546001600160a01b0319168155908101829055600201805460ff191690555b60025481101561087157816001600160a01b03166002828154811061079d5761079d610e6b565b6000918252602090912001546001600160a01b03160361086957600280546107c790600190610eb0565b815481106107d7576107d7610e6b565b600091825260209091200154600280546001600160a01b03909216918390811061080357610803610e6b565b9060005260206000200160006101000a8154816001600160a01b0302191690836001600160a01b03160217905550600280548061084257610842610ec3565b600082815260209020810160001990810180546001600160a01b0319169055019055610871565b600101610776565b506040516001600160a01b038216907fabae6e64cb4315875c29d42347a312f5e9fce4ab564e9722b43dd78d0751135a90600090a250565b6000546001600160a01b031633146108d35760405162461bcd60e51b815260040161027390610e0c565b478061091a5760405162461bcd60e51b81526020600482015260166024820152754e6f2062616c616e636520746f20776974686472617760501b6044820152606401610273565b600080546040516001600160a01b039091169083908381818185875af1925050503d8060008114610967576040519150601f19603f3d011682016040523d82523d6000602084013e61096c565b606091505b50509050806109b15760405162461bcd60e51b815260206004820152601160248201527015da5d1a191c985dd85b0819985a5b1959607a1b6044820152606401610273565b6000546040518381526001600160a01b03909116907feaff4b37086828766ad3268786972c0cd24259d4c87a80f9d3963a3c3d999b0d906020015b60405180910390a25050565b60606002805480602002602001604051908101604052809291908181526020018280548015610a5057602002820191906000526020600020905b81546001600160a01b03168152600190910190602001808311610a32575b5050505050905090565b6000546001600160a01b03163314610a845760405162461bcd60e51b815260040161027390610e0c565b6001600160a01b03821660009081526001602052604090206002015460ff1615610af05760405162461bcd60e51b815260206004820152601760248201527f456d706c6f79656520616c7265616479206578697374730000000000000000006044820152606401610273565b6001600160a01b038216610b385760405162461bcd60e51b815260206004820152600f60248201526e496e76616c6964206164647265737360881b6044820152606401610273565b60008111610b885760405162461bcd60e51b815260206004820152601d60248201527f53616c617279206d7573742062652067726561746572207468616e20300000006044820152606401610273565b604080516060810182526001600160a01b03848116808352602080840186815260018587018181526000858152828552888120975188546001600160a01b031990811691909816178855925187830155516002968701805460ff1916911515919091179055855490810186559490527f405787fa12a823e0f2b7631cc41b3ba8828b3321ca811111fa75cd3aa3bb5ace9093018054909216811790915591518381527fbe7f6b46c4532a5c90b0500f056ec43ad5e7ac8c4d410c5351ea9a4a4bed2a0a91016109ec565b6000546001600160a01b03163314610c7c5760405162461bcd60e51b815260040161027390610e0c565b6001600160a01b03821660009081526001602052604090206002015460ff16610cb75760405162461bcd60e51b815260040161027390610e34565b60008111610d075760405162461bcd60e51b815260206004820152601d60248201527f53616c617279206d7573742062652067726561746572207468616e20300000006044820152606401610273565b6001600160a01b03821660008181526001602081905260409182902001839055517fbe7f6b46c4532a5c90b0500f056ec43ad5e7ac8c4d410c5351ea9a4a4bed2a0a906109ec9084815260200190565b80356001600160a01b0381168114610d6e57600080fd5b919050565b600060208284031215610d8557600080fd5b610d8e82610d57565b9392505050565b6020808252825182820181905260009190848201906040850190845b81811015610dd65783516001600160a01b031683529284019291840191600101610db1565b50909695505050505050565b60008060408385031215610df557600080fd5b610dfe83610d57565b946020939093013593505050565b6020808252600e908201526d139bdd08185d5d1a1bdc9a5e995960921b604082015260600190565b60208082526017908201527f456d706c6f79656520646f6573206e6f74206578697374000000000000000000604082015260600190565b634e487b7160e01b600052603260045260246000fd5b634e487b7160e01b600052601160045260246000fd5b80820180821115610eaa57610eaa610e81565b92915050565b81810381811115610eaa57610eaa610e81565b634e487b7160e01b600052603160045260246000fdfea2646970667358221220ba74cddd6373b45c3a6d7a2cec825d950dc8faac314769ffd6460de13625021764736f6c63430008190033",
  "linkReferences": {},
  "deployedLinkReferences": {}
}